:020000040000FA
:103EA0008301831603178E128E1FF72F83120613BA
:103EB0008316061786138312861303130830A10096
:103EC0000230A200221C712F831603170E088312E2
:103ED0000313A300A001752F0530A100A20B622FD0
:103EE0008A2F831603170F08672F0317061F752FD6
:103EF000861303132318862FA30C0317061B7D2F8D
:103F00000313A10B752F201C6C2F8A2F0317861704
:103F100003137C2F0317061F8A2F8316861783121D
:103F2000061B8D2F861FEA2F061F942F061B962F28
:103F3000861FB62F9B2F0313A301A0010830A100F9
:103F4000D32F2308031783168F0003138312A301B3
:103F50000530A100A00AD32FA30CA30CA30C2308A7
:103F6000031783168E0003138312EA2F0313A30192
:103F70000230A0000130A100D32F8317A31F8313A9
:103F8000A3010830A100A00AD32F23088400000851
:103F9000A3000130A0000830A10083160317861388
:103FA00083120313752F0313A30CA3130317061F08
:103FB000D72F061BD92F861FDF2F0313A317031339
:103FC000A10BD32FA018E72F201CA12FAC2F201C52
:103FD000BD2FC52F83010317861703132408840000
:103FE00025088A00260E8300FF0E7F0E08008A0136
:043FF00083010F2812
:00000001FF
