:020000040000FA
:103E8000831603178E1FD82F831206138316061767
:103E900086138312861303130830A0000230A1009A
:103EA000211C5F2F831603170E0883120313A20031
:103EB000A301632F0530A000A10B502F782F83168C
:103EC00003170F08552F0317061F632F86130313BD
:103ED0002218742FA20C0317061B6B2F0313A00BC1
:103EE000632F231C5A2F782F0317861703136A2F6B
:103EF0000317061F782F831686178312061B7B2F46
:103F0000861FD82F061F822F061B842F861FA42FE3
:103F1000892F0313A201A3010830A000C12F22089A
:103F2000031783168F0003138312A2010530A0002C
:103F3000A30AC12FA20CA20CA20C220803178316FD
:103F40008E0003138312D82F0313A2010230A300A3
:103F50000130A000C12F8317A21F8313A2010830D4
:103F6000A000A30AC12F220884000008A20001308B
:103F7000A3000830A00083160317861383120313CF
:103F8000632F0313A20CA2130317061FC52F061BD2
:103F9000C72F861FCD2F0313A2170313A00BC12F0A
:103FA000A318D52F231C8F2F9A2F231CAB2FB32F91
:103FB000831203138A01831603178E128312861746
:043FC0008301080071
:00000001FF
